{
  "_format": "hh-sol-artifact-1",
  "contractName": "NextMillionaire",
  "sourceName": "contracts/NextMillionaire.sol",
  "abi": [
    {
      "inputs": [],
      "stateMutability": "nonpayable",
      "type": "constructor"
    },
    {
      "anonymous": false,
      "inputs": [
        {
          "indexed": false,
          "internalType": "uint256",
          "name": "lotterId",
          "type": "uint256"
        },
        {
          "indexed": true,
          "internalType": "address",
          "name": "winner",
          "type": "address"
        }
      ],
      "name": "PlayerJoined",
      "type": "event"
    },
    {
      "anonymous": false,
      "inputs": [
        {
          "indexed": false,
          "internalType": "uint256",
          "name": "lotterId",
          "type": "uint256"
        }
      ],
      "name": "StartedLottery",
      "type": "event"
    },
    {
      "inputs": [],
      "name": "admin",
      "outputs": [
        {
          "internalType": "address",
          "name": "",
          "type": "address"
        }
      ],
      "stateMutability": "view",
      "type": "function"
    },
    {
      "inputs": [],
      "name": "endtime",
      "outputs": [
        {
          "internalType": "uint256",
          "name": "",
          "type": "uint256"
        }
      ],
      "stateMutability": "view",
      "type": "function"
    },
    {
      "inputs": [],
      "name": "entryFee",
      "outputs": [
        {
          "internalType": "uint256",
          "name": "",
          "type": "uint256"
        }
      ],
      "stateMutability": "view",
      "type": "function"
    },
    {
      "inputs": [],
      "name": "getBalance",
      "outputs": [
        {
          "internalType": "uint256",
          "name": "",
          "type": "uint256"
        }
      ],
      "stateMutability": "view",
      "type": "function"
    },
    {
      "inputs": [],
      "name": "getPlayers",
      "outputs": [
        {
          "internalType": "address payable[]",
          "name": "",
          "type": "address[]"
        }
      ],
      "stateMutability": "view",
      "type": "function"
    },
    {
      "inputs": [],
      "name": "getRandomNumber",
      "outputs": [
        {
          "internalType": "uint256",
          "name": "",
          "type": "uint256"
        }
      ],
      "stateMutability": "view",
      "type": "function"
    },
    {
      "inputs": [
        {
          "internalType": "uint256",
          "name": "lottery",
          "type": "uint256"
        }
      ],
      "name": "getWinnerByLottery",
      "outputs": [
        {
          "internalType": "address payable",
          "name": "",
          "type": "address"
        }
      ],
      "stateMutability": "view",
      "type": "function"
    },
    {
      "inputs": [
        {
          "internalType": "uint256",
          "name": "",
          "type": "uint256"
        }
      ],
      "name": "lotteryHistory",
      "outputs": [
        {
          "internalType": "address payable",
          "name": "",
          "type": "address"
        }
      ],
      "stateMutability": "view",
      "type": "function"
    },
    {
      "inputs": [],
      "name": "lotteryId",
      "outputs": [
        {
          "internalType": "uint256",
          "name": "",
          "type": "uint256"
        }
      ],
      "stateMutability": "view",
      "type": "function"
    },
    {
      "inputs": [],
      "name": "lotteryState",
      "outputs": [
        {
          "internalType": "enum NextMillionaire.LOTTERY_STATE",
          "name": "",
          "type": "uint8"
        }
      ],
      "stateMutability": "view",
      "type": "function"
    },
    {
      "inputs": [],
      "name": "nonce",
      "outputs": [
        {
          "internalType": "uint256",
          "name": "",
          "type": "uint256"
        }
      ],
      "stateMutability": "view",
      "type": "function"
    },
    {
      "inputs": [],
      "name": "pickWinner",
      "outputs": [],
      "stateMutability": "nonpayable",
      "type": "function"
    },
    {
      "inputs": [
        {
          "internalType": "uint256",
          "name": "",
          "type": "uint256"
        }
      ],
      "name": "players",
      "outputs": [
        {
          "internalType": "address payable",
          "name": "",
          "type": "address"
        }
      ],
      "stateMutability": "view",
      "type": "function"
    },
    {
      "inputs": [],
      "name": "registerForLottery",
      "outputs": [],
      "stateMutability": "payable",
      "type": "function"
    },
    {
      "inputs": [],
      "name": "startLottery",
      "outputs": [],
      "stateMutability": "nonpayable",
      "type": "function"
    }
  ],
  "bytecode": "0x608060405234801561001057600080fd5b50336000806101000a81548173ffffffffffffffffffffffffffffffffffffffff021916908373ffffffffffffffffffffffffffffffffffffffff16021790555060016002819055506001600660006101000a81548160ff0219169083600181111561007f5761007e610089565b5b02179055506100b8565b7f4e487b7100000000000000000000000000000000000000000000000000000000600052602160045260246000fd5b6113ac806100c76000396000f3fe6080604052600436106100e85760003560e01c80636939864b1161008a578063dbdff2c111610059578063dbdff2c1146102a1578063e580f47b146102cc578063f71d96cb146102f7578063f851a44014610334576100e8565b80636939864b146101e35780636d6fe2301461020e5780638b5b9ccc1461024b578063affed0e014610276576100e8565b8063281d098d116100c6578063281d098d1461015a5780632899f3c3146101975780632ca126f8146101a15780635d495aea146101cc576100e8565b8063072ea61c146100ed57806312065fe014610118578063160344e214610143575b600080fd5b3480156100f957600080fd5b5061010261035f565b60405161010f9190610bee565b60405180910390f35b34801561012457600080fd5b5061012d610365565b60405161013a9190610bee565b60405180910390f35b34801561014f57600080fd5b5061015861036d565b005b34801561016657600080fd5b50610181600480360381019061017c9190610c3a565b6104d4565b60405161018e9190610ca8565b60405180910390f35b61019f610511565b005b3480156101ad57600080fd5b506101b66106c6565b6040516101c39190610bee565b60405180910390f35b3480156101d857600080fd5b506101e16106cc565b005b3480156101ef57600080fd5b506101f86109b2565b6040516102059190610d3a565b60405180910390f35b34801561021a57600080fd5b5061023560048036038101906102309190610c3a565b6109c5565b6040516102429190610ca8565b60405180910390f35b34801561025757600080fd5b506102606109f8565b60405161026d9190610e13565b60405180910390f35b34801561028257600080fd5b5061028b610a86565b6040516102989190610bee565b60405180910390f35b3480156102ad57600080fd5b506102b6610a8c565b6040516102c39190610bee565b60405180910390f35b3480156102d857600080fd5b506102e1610ac5565b6040516102ee9190610bee565b60405180910390f35b34801561030357600080fd5b5061031e60048036038101906103199190610c3a565b610acb565b60405161032b9190610ca8565b60405180910390f35b34801561034057600080fd5b50610349610b0a565b6040516103569190610e56565b60405180910390f35b60055481565b600047905090565b60008054906101000a900473ffffffffffffffffffffffffffffffffffffffff1673ffffffffffffffffffffffffffffffffffffffff163373ffffffffffffffffffffffffffffffffffffffff16146103c557600080fd5b6001808111156103d8576103d7610cc3565b5b600660009054906101000a900460ff1660018111156103fa576103f9610cc3565b5b1461043a576040517f08c379a000000000000000000000000000000000000000000000000000000000815260040161043190610ef4565b60405180910390fd5b60b4426104479190610f43565b600381905550670de0b6b3a76400006005819055506000600660006101000a81548160ff0219169083600181111561048257610481610cc3565b5b02179055506004600081548092919060010191905055507fece632016d848cdc4290ad110d565d9b2cd631240d95e3bf90ff13decda9a6286002546040516104ca9190610bee565b60405180910390a1565b60006007600083815260200190815260200160002060009054906101000a900473ffffffffffffffffffffffffffffffffffffffff169050919050565b6000600181111561052557610524610cc3565b5b600660009054906101000a900460ff16600181111561054757610546610cc3565b5b14610587576040517f08c379a000000000000000000000000000000000000000000000000000000000815260040161057e90610fe5565b60405180910390fd5b6003544211156105cc576040517f08c379a00000000000000000000000000000000000000000000000000000000081526004016105c390611077565b60405180910390fd5b600554341015610611576040517f08c379a000000000000000000000000000000000000000000000000000000000815260040161060890611109565b60405180910390fd5b6001339080600181540180825580915050600190039060005260206000200160009091909190916101000a81548173ffffffffffffffffffffffffffffffffffffffff021916908373ffffffffffffffffffffffffffffffffffffffff1602179055503373ffffffffffffffffffffffffffffffffffffffff167f87969bc7faf902221a147b95ceba76e011c5efb0339a0a8ee7a2bb82d9cfbbd66002546040516106bc9190610bee565b60405180910390a2565b60035481565b60008054906101000a900473ffffffffffffffffffffffffffffffffffffffff1673ffffffffffffffffffffffffffffffffffffffff163373ffffffffffffffffffffffffffffffffffffffff161461072457600080fd5b6000600181111561073857610737610cc3565b5b600660009054906101000a900460ff16600181111561075a57610759610cc3565b5b1461079a576040517f08c379a000000000000000000000000000000000000000000000000000000000815260040161079190611175565b60405180910390fd5b6003544210156107df576040517f08c379a00000000000000000000000000000000000000000000000000000000081526004016107d6906111e1565b60405180910390fd5b60006001805490506107ef610a8c565b6107f99190611230565b90506001818154811061080f5761080e611261565b5b9060005260206000200160009054906101000a900473ffffffffffffffffffffffffffffffffffffffff1673ffffffffffffffffffffffffffffffffffffffff166108fc479081150290604051600060405180830381858888f1935050505015801561087f573d6000803e3d6000fd5b506001818154811061089457610893611261565b5b9060005260206000200160009054906101000a900473ffffffffffffffffffffffffffffffffffffffff1660076000600254815260200190815260200160002060006101000a81548173ffffffffffffffffffffffffffffffffffffffff021916908373ffffffffffffffffffffffffffffffffffffffff160217905550600260008154809291906001019190505550600067ffffffffffffffff81111561093f5761093e611290565b5b60405190808252806020026020018201604052801561096d5781602001602082028036833780820191505090505b5060019080519060200190610983929190610b2e565b506001600660006101000a81548160ff021916908360018111156109aa576109a9610cc3565b5b021790555050565b600660009054906101000a900460ff1681565b60076020528060005260406000206000915054906101000a900473ffffffffffffffffffffffffffffffffffffffff1681565b60606001805480602002602001604051908101604052809291908181526020018280548015610a7c57602002820191906000526020600020905b8160009054906101000a900473ffffffffffffffffffffffffffffffffffffffff1673ffffffffffffffffffffffffffffffffffffffff1681526020019060010190808311610a32575b5050505050905090565b60045481565b6000600454424433604051602001610aa79493929190611328565b6040516020818303038152906040528051906020012060001c905090565b60025481565b60018181548110610adb57600080fd5b906000526020600020016000915054906101000a900473ffffffffffffffffffffffffffffffffffffffff1681565b60008054906101000a900473ffffffffffffffffffffffffffffffffffffffff1681565b828054828255906000526020600020908101928215610ba7579160200282015b82811115610ba65782518260006101000a81548173ffffffffffffffffffffffffffffffffffffffff021916908373ffffffffffffffffffffffffffffffffffffffff16021790555091602001919060010190610b4e565b5b509050610bb49190610bb8565b5090565b5b80821115610bd1576000816000905550600101610bb9565b5090565b6000819050919050565b610be881610bd5565b82525050565b6000602082019050610c036000830184610bdf565b92915050565b600080fd5b610c1781610bd5565b8114610c2257600080fd5b50565b600081359050610c3481610c0e565b92915050565b600060208284031215610c5057610c4f610c09565b5b6000610c5e84828501610c25565b91505092915050565b600073ffffffffffffffffffffffffffffffffffffffff82169050919050565b6000610c9282610c67565b9050919050565b610ca281610c87565b82525050565b6000602082019050610cbd6000830184610c99565b92915050565b7f4e487b7100000000000000000000000000000000000000000000000000000000600052602160045260246000fd5b60028110610d0357610d02610cc3565b5b50565b6000819050610d1482610cf2565b919050565b6000610d2482610d06565b9050919050565b610d3481610d19565b82525050565b6000602082019050610d4f6000830184610d2b565b92915050565b600081519050919050565b600082825260208201905092915050565b6000819050602082019050919050565b610d8a81610c87565b82525050565b6000610d9c8383610d81565b60208301905092915050565b6000602082019050919050565b6000610dc082610d55565b610dca8185610d60565b9350610dd583610d71565b8060005b83811015610e06578151610ded8882610d90565b9750610df883610da8565b925050600181019050610dd9565b5085935050505092915050565b60006020820190508181036000830152610e2d8184610db5565b905092915050565b6000610e4082610c67565b9050919050565b610e5081610e35565b82525050565b6000602082019050610e6b6000830184610e47565b92915050565b600082825260208201905092915050565b7f4c6f74746572792069732072756e6e696e672c636865636b206261636b206c6160008201527f7465720000000000000000000000000000000000000000000000000000000000602082015250565b6000610ede602383610e71565b9150610ee982610e82565b604082019050919050565b60006020820190508181036000830152610f0d81610ed1565b9050919050565b7f4e487b7100000000000000000000000000000000000000000000000000000000600052601160045260246000fd5b6000610f4e82610bd5565b9150610f5983610bd5565b9250827fffffffffffffffffffffffffffffffffffffffffffffffffffffffffffffffff03821115610f8e57610f8d610f14565b5b828201905092915050565b7f47616d6520686173206e6f74206265656e207374617274656420796574000000600082015250565b6000610fcf601d83610e71565b9150610fda82610f99565b602082019050919050565b60006020820190508181036000830152610ffe81610fc2565b9050919050565b7f205468652074696d65206c696d697420656e64656420666f722074686520676160008201527f6d652d747279206e657874206f6e650000000000000000000000000000000000602082015250565b6000611061602f83610e71565b915061106c82611005565b604082019050919050565b6000602082019050818103600083015261109081611054565b9050919050565b7f56616c75652073656e74206973206e6f7420657175616c20746f20656e74727960008201527f466565202d203120657468657200000000000000000000000000000000000000602082015250565b60006110f3602d83610e71565b91506110fe82611097565b604082019050919050565b60006020820190508181036000830152611122816110e6565b9050919050565b7f4e6f7420696e20636f7272656374207374617465000000000000000000000000600082015250565b600061115f601483610e71565b915061116a82611129565b602082019050919050565b6000602082019050818103600083015261118e81611152565b9050919050565b7f7761697420666f7220656e64206f66206c6f74746572792074696d6500000000600082015250565b60006111cb601c83610e71565b91506111d682611195565b602082019050919050565b600060208201905081810360008301526111fa816111be565b9050919050565b7f4e487b7100000000000000000000000000000000000000000000000000000000600052601260045260246000fd5b600061123b82610bd5565b915061124683610bd5565b92508261125657611255611201565b5b828206905092915050565b7f4e487b7100000000000000000000000000000000000000000000000000000000600052603260045260246000fd5b7f4e487b7100000000000000000000000000000000000000000000000000000000600052604160045260246000fd5b6000819050919050565b6112da6112d582610bd5565b6112bf565b82525050565b60008160601b9050919050565b60006112f8826112e0565b9050919050565b600061130a826112ed565b9050919050565b61132261131d82610e35565b6112ff565b82525050565b600061133482876112c9565b60208201915061134482866112c9565b60208201915061135482856112c9565b6020820191506113648284611311565b6014820191508190509594505050505056fea2646970667358221220853b78db296fab9a3f6905138dc513f23032e1690ef233c3414b6f27e38bef1664736f6c634300080d0033",
  "linkReferences": {},
  "deployedLinkReferences": {}
}